{
  "contractName": "Company",
  "abi": [
    {
      "inputs": [
        {
          "internalType": "address",
          "name": "_owner",
          "type": "address"
        },
        {
          "internalType": "string",
          "name": "_symbol",
          "type": "string"
        },
        {
          "internalType": "uint256",
          "name": "_issued",
          "type": "uint256"
        },
        {
          "internalType": "uint256",
          "name": "_float",
          "type": "uint256"
        }
      ],
      "payable": false,
      "stateMutability": "nonpayable",
      "type": "constructor"
    },
    {
      "constant": true,
      "inputs": [],
      "name": "owner",
      "outputs": [
        {
          "internalType": "address",
          "name": "",
          "type": "address"
        }
      ],
      "payable": false,
      "stateMutability": "view",
      "type": "function"
    },
    {
      "constant": true,
      "inputs": [],
      "name": "symbol",
      "outputs": [
        {
          "internalType": "string",
          "name": "",
          "type": "string"
        }
      ],
      "payable": false,
      "stateMutability": "view",
      "type": "function"
    },
    {
      "constant": true,
      "inputs": [
        {
          "internalType": "address",
          "name": "_addr",
          "type": "address"
        }
      ],
      "name": "isOwner",
      "outputs": [
        {
          "internalType": "bool",
          "name": "",
          "type": "bool"
        }
      ],
      "payable": false,
      "stateMutability": "view",
      "type": "function"
    },
    {
      "constant": false,
      "inputs": [
        {
          "internalType": "address",
          "name": "_oldOwner",
          "type": "address"
        },
        {
          "internalType": "address",
          "name": "_newOwner",
          "type": "address"
        }
      ],
      "name": "changeOwnership",
      "outputs": [
        {
          "internalType": "address",
          "name": "",
          "type": "address"
        }
      ],
      "payable": false,
      "stateMutability": "nonpayable",
      "type": "function"
    }
  ],
  "bytecode": "0x608060405234801561001057600080fd5b506040516107723803806107728339818101604052608081101561003357600080fd5b81019080805190602001909291908051604051939291908464010000000082111561005d57600080fd5b8382019150602082018581111561007357600080fd5b825186600182028301116401000000008211171561009057600080fd5b8083526020830192505050908051906020019080838360005b838110156100c45780820151818401526020810190506100a9565b50505050905090810190601f1680156100f15780820380516001836020036101000a031916815260200191505b506040526020018051906020019092919080519060200190929190505050818110610167576040517f08c379a000000000000000000000000000000000000000000000000000000000815260040180806020018281038252602781526020018061074b6027913960400191505060405180910390fd5b83600160006101000a81548173ffffffffffffffffffffffffffffffffffffffff021916908373ffffffffffffffffffffffffffffffffffffffff16021790555082600090805190602001906101be9291906101d6565b5081600281905550806003819055505050505061027b565b828054600181600116156101000203166002900490600052602060002090601f016020900481019282601f1061021757805160ff1916838001178555610245565b82800160010185558215610245579182015b82811115610244578251825591602001919060010190610229565b5b5090506102529190610256565b5090565b61027891905b8082111561027457600081600090555060010161025c565b5090565b90565b6104c18061028a6000396000f3fe608060405234801561001057600080fd5b506004361061004c5760003560e01c80632f54bf6e146100515780638da5cb5b146100ad57806395d89b41146100f7578063bf93a8be1461017a575b600080fd5b6100936004803603602081101561006757600080fd5b81019080803573ffffffffffffffffffffffffffffffffffffffff16906020019092919050505061021e565b604051808215151515815260200191505060405180910390f35b6100b5610278565b604051808273ffffffffffffffffffffffffffffffffffffffff1673ffffffffffffffffffffffffffffffffffffffff16815260200191505060405180910390f35b6100ff61029e565b6040518080602001828103825283818151815260200191508051906020019080838360005b8381101561013f578082015181840152602081019050610124565b50505050905090810190601f16801561016c5780820380516001836020036101000a031916815260200191505b509250505060405180910390f35b6101dc6004803603604081101561019057600080fd5b81019080803573ffffffffffffffffffffffffffffffffffffffff169060200190929190803573ffffffffffffffffffffffffffffffffffffffff16906020019092919050505061033c565b604051808273ffffffffffffffffffffffffffffffffffffffff1673ffffffffffffffffffffffffffffffffffffffff16815260200191505060405180910390f35b6000600160009054906101000a900473ffffffffffffffffffffffffffffffffffffffff1673ffffffffffffffffffffffffffffffffffffffff168273ffffffffffffffffffffffffffffffffffffffff16149050919050565b600160009054906101000a900473ffffffffffffffffffffffffffffffffffffffff1681565b60008054600181600116156101000203166002900480601f0160208091040260200160405190810160405280929190818152602001828054600181600116156101000203166002900480156103345780601f1061030957610100808354040283529160200191610334565b820191906000526020600020905b81548152906001019060200180831161031757829003601f168201915b505050505081565b6000600160009054906101000a900473ffffffffffffffffffffffffffffffffffffffff1673ffffffffffffffffffffffffffffffffffffffff168373ffffffffffffffffffffffffffffffffffffffff16146103e4576040517f08c379a000000000000000000000000000000000000000000000000000000000815260040180806020018281038252603c815260200180610451603c913960400191505060405180910390fd5b81600160006101000a81548173ffffffffffffffffffffffffffffffffffffffff021916908373ffffffffffffffffffffffffffffffffffffffff160217905550600160009054906101000a900473ffffffffffffffffffffffffffffffffffffffff1690509291505056fe4f776e657273686970206368616e67652072657175657374206d6164652066726f6d206e6f6e2d617574686f7261746174697665206163636f756e74a265627a7a7231582079fd440cd5d8cb28ae0c80e2ad1230ad153840ea8784726524bddaa8d07329f664736f6c63430005100032546f74616c20736861726573206973206e6f742067726561746572207468616e20666c6f61742e",
  "source": "pragma solidity >=0.5.0 <0.9.0;\r\n\r\ncontract Company\r\n{\r\n    string public symbol;\r\n    address public owner;\r\n    \r\n    // Total stock\r\n    uint issuedShares;\r\n    // Publicly available stock\r\n    uint floatShares;\r\n    \r\n    address[] buyOrders;\r\n    address[] sellOrders;\r\n    \r\n    constructor(address _owner, string memory _symbol, uint _issued, uint _float) public\r\n    {\r\n        require(_float < _issued, \"Total shares is not greater than float.\");\r\n        \r\n        owner = _owner;\r\n        symbol = _symbol;\r\n        issuedShares = _issued;\r\n        floatShares = _float;\r\n    }\r\n    \r\n    function isOwner(address _addr) public view returns (bool)\r\n    {\r\n        return _addr == owner;\r\n    }\r\n    \r\n    function changeOwnership(address _oldOwner, address _newOwner) public returns(address)\r\n\t{\r\n\t\trequire(_oldOwner == owner, \"Ownership change request made from non-authoratative account\");\r\n\t\t\r\n\t\towner = _newOwner;\r\n\t\t\r\n\t\treturn owner;\r\n\t}\r\n    \r\n}",
  "sourcePath": "C:\\Users\\cryst\\Documents\\autumn-2021-2022\\projects\\group5\\ClearChain\\contracts\\Company.sol",
  "compiler": {
    "name": "solc",
    "version": "0.5.16+commit.9c3226ce.Emscripten.clang"
  },
  "schemaVersion": "3.4.3",
  "updatedAt": "2021-11-08T19:32:37.123Z",
  "devdoc": {
    "methods": {}
  },
  "userdoc": {
    "methods": {}
  }
}