{
  "contractName": "Transfer",
  "abi": [
    {
      "constant": true,
      "inputs": [
        {
          "internalType": "string",
          "name": "",
          "type": "string"
        }
      ],
      "name": "companies",
      "outputs": [
        {
          "internalType": "contract Company",
          "name": "",
          "type": "address"
        }
      ],
      "payable": false,
      "stateMutability": "view",
      "type": "function"
    },
    {
      "constant": true,
      "inputs": [
        {
          "internalType": "uint256",
          "name": "",
          "type": "uint256"
        }
      ],
      "name": "companySymbols",
      "outputs": [
        {
          "internalType": "string",
          "name": "",
          "type": "string"
        }
      ],
      "payable": false,
      "stateMutability": "view",
      "type": "function"
    },
    {
      "constant": true,
      "inputs": [
        {
          "internalType": "address",
          "name": "",
          "type": "address"
        }
      ],
      "name": "users",
      "outputs": [
        {
          "internalType": "contract User",
          "name": "",
          "type": "address"
        }
      ],
      "payable": false,
      "stateMutability": "view",
      "type": "function"
    },
    {
      "constant": true,
      "inputs": [
        {
          "internalType": "string",
          "name": "symbol",
          "type": "string"
        }
      ],
      "name": "getCompanies",
      "outputs": [
        {
          "internalType": "contract Company",
          "name": "",
          "type": "address"
        }
      ],
      "payable": false,
      "stateMutability": "view",
      "type": "function"
    },
    {
      "constant": true,
      "inputs": [
        {
          "internalType": "address",
          "name": "user",
          "type": "address"
        }
      ],
      "name": "getUsers",
      "outputs": [
        {
          "internalType": "contract User",
          "name": "",
          "type": "address"
        }
      ],
      "payable": false,
      "stateMutability": "view",
      "type": "function"
    },
    {
      "constant": true,
      "inputs": [
        {
          "internalType": "address",
          "name": "user",
          "type": "address"
        },
        {
          "internalType": "string",
          "name": "symbol",
          "type": "string"
        }
      ],
      "name": "getUsersStockBalance",
      "outputs": [
        {
          "internalType": "uint256",
          "name": "",
          "type": "uint256"
        }
      ],
      "payable": false,
      "stateMutability": "view",
      "type": "function"
    },
    {
      "constant": true,
      "inputs": [
        {
          "internalType": "address",
          "name": "user",
          "type": "address"
        },
        {
          "internalType": "string",
          "name": "symbol",
          "type": "string"
        }
      ],
      "name": "getUsersBuyOrderQuantity",
      "outputs": [
        {
          "internalType": "uint256",
          "name": "",
          "type": "uint256"
        }
      ],
      "payable": false,
      "stateMutability": "view",
      "type": "function"
    },
    {
      "constant": true,
      "inputs": [
        {
          "internalType": "address",
          "name": "user",
          "type": "address"
        },
        {
          "internalType": "string",
          "name": "symbol",
          "type": "string"
        }
      ],
      "name": "getUsersBuyOrderPrice",
      "outputs": [
        {
          "internalType": "uint256",
          "name": "",
          "type": "uint256"
        }
      ],
      "payable": false,
      "stateMutability": "view",
      "type": "function"
    },
    {
      "constant": true,
      "inputs": [
        {
          "internalType": "uint256",
          "name": "index",
          "type": "uint256"
        }
      ],
      "name": "getCompanySymbol",
      "outputs": [
        {
          "internalType": "string",
          "name": "",
          "type": "string"
        }
      ],
      "payable": false,
      "stateMutability": "view",
      "type": "function"
    },
    {
      "constant": true,
      "inputs": [
        {
          "internalType": "string",
          "name": "a",
          "type": "string"
        },
        {
          "internalType": "string",
          "name": "b",
          "type": "string"
        }
      ],
      "name": "compareStrings",
      "outputs": [
        {
          "internalType": "bool",
          "name": "",
          "type": "bool"
        }
      ],
      "payable": false,
      "stateMutability": "pure",
      "type": "function"
    },
    {
      "constant": true,
      "inputs": [
        {
          "internalType": "string",
          "name": "_symbol",
          "type": "string"
        }
      ],
      "name": "companyNew",
      "outputs": [
        {
          "internalType": "bool",
          "name": "",
          "type": "bool"
        }
      ],
      "payable": false,
      "stateMutability": "view",
      "type": "function"
    },
    {
      "constant": false,
      "inputs": [
        {
          "internalType": "string",
          "name": "_symbol",
          "type": "string"
        },
        {
          "internalType": "address",
          "name": "_newOwner",
          "type": "address"
        }
      ],
      "name": "changeOwnership",
      "outputs": [
        {
          "internalType": "address",
          "name": "",
          "type": "address"
        }
      ],
      "payable": false,
      "stateMutability": "nonpayable",
      "type": "function"
    },
    {
      "constant": false,
      "inputs": [
        {
          "internalType": "string",
          "name": "_symbol",
          "type": "string"
        },
        {
          "internalType": "uint256",
          "name": "_issued",
          "type": "uint256"
        },
        {
          "internalType": "uint256",
          "name": "_float",
          "type": "uint256"
        }
      ],
      "name": "newIPO",
      "outputs": [],
      "payable": false,
      "stateMutability": "nonpayable",
      "type": "function"
    },
    {
      "constant": false,
      "inputs": [
        {
          "internalType": "string",
          "name": "_symbol",
          "type": "string"
        },
        {
          "internalType": "uint256",
          "name": "_quantity",
          "type": "uint256"
        },
        {
          "internalType": "uint256",
          "name": "_priceLimit",
          "type": "uint256"
        }
      ],
      "name": "buyRequest",
      "outputs": [],
      "payable": false,
      "stateMutability": "nonpayable",
      "type": "function"
    },
    {
      "constant": true,
      "inputs": [
        {
          "internalType": "string",
          "name": "_symbol",
          "type": "string"
        }
      ],
      "name": "getPortfolio",
      "outputs": [
        {
          "internalType": "string",
          "name": "",
          "type": "string"
        }
      ],
      "payable": false,
      "stateMutability": "view",
      "type": "function"
    },
    {
      "constant": false,
      "inputs": [
        {
          "internalType": "string",
          "name": "_symbol",
          "type": "string"
        },
        {
          "internalType": "uint256",
          "name": "_quantity",
          "type": "uint256"
        },
        {
          "internalType": "uint256",
          "name": "_priceLimit",
          "type": "uint256"
        }
      ],
      "name": "sellRequest",
      "outputs": [],
      "payable": false,
      "stateMutability": "nonpayable",
      "type": "function"
    }
  ],
  "bytecode": "0x608060405234801561001057600080fd5b506150f1806100206000396000f3fe60806040523480156200001157600080fd5b5060043610620001185760003560e01c806380d149b611620000a5578063bed34bba116200006f578063bed34bba1462000bc5578063c4ba5aac1462000d38578063d4d241c11462000e0d578063f83cc4b81462000ee25762000118565b806380d149b614620008335780638f37695f14620009705780638f92a1b51462000a65578063a87430ba1462000b3e5762000118565b80635cd5fe0211620000e75780635cd5fe0214620004b5578063602b386e14620005aa5780636086772e14620006315780637a3d027714620007325762000118565b806311bebe07146200011d5780632f0c94b114620001ca57806342ba518b14620002bf57806348be982514620003e0575b600080fd5b6200014c600480360360208110156200013557600080fd5b810190808035906020019092919050505062000f8f565b6040518080602001828103825283818151815260200191508051906020019080838360005b838110156200018e57808201518184015260208101905062000171565b50505050905090810190601f168015620001bc5780820380516001836020036101000a031916815260200191505b509250505060405180910390f35b620002a960048036036040811015620001e257600080fd5b81019080803573ffffffffffffffffffffffffffffffffffffffff169060200190929190803590602001906401000000008111156200022057600080fd5b8201836020820111156200023357600080fd5b803590602001918460018302840111640100000000831117156200025657600080fd5b91908080601f016020809104026020016040519081016040528093929190818152602001838380828437600081840152601f19601f8201169050808301925050505050505091929192905050506200104d565b6040518082815260200191505060405180910390f35b6200039e60048036036040811015620002d757600080fd5b8101908080359060200190640100000000811115620002f557600080fd5b8201836020820111156200030857600080fd5b803590602001918460018302840111640100000000831117156200032b57600080fd5b91908080601f016020809104026020016040519081016040528093929190818152602001838380828437600081840152601f19601f820116905080830192505050505050509192919290803573ffffffffffffffffffffffffffffffffffffffff169060200190929190505050620011ad565b604051808273ffffffffffffffffffffffffffffffffffffffff1673ffffffffffffffffffffffffffffffffffffffff16815260200191505060405180910390f35b620004b360048036036060811015620003f857600080fd5b81019080803590602001906401000000008111156200041657600080fd5b8201836020820111156200042957600080fd5b803590602001918460018302840111640100000000831117156200044c57600080fd5b91908080601f016020809104026020016040519081016040528093929190818152602001838380828437600081840152601f19601f8201169050808301925050505050505091929192908035906020019092919080359060200190929190505050620013c7565b005b6200059460048036036040811015620004cd57600080fd5b81019080803573ffffffffffffffffffffffffffffffffffffffff169060200190929190803590602001906401000000008111156200050b57600080fd5b8201836020820111156200051e57600080fd5b803590602001918460018302840111640100000000831117156200054157600080fd5b91908080601f016020809104026020016040519081016040528093929190818152602001838380828437600081840152601f19601f820116905080830192505050505050509192919290505050620015f7565b6040518082815260200191505060405180910390f35b620005ef60048036036020811015620005c257600080fd5b81019080803573ffffffffffffffffffffffffffffffffffffffff16906020019092919050505062001757565b604051808273ffffffffffffffffffffffffffffffffffffffff1673ffffffffffffffffffffffffffffffffffffffff16815260200191505060405180910390f35b620006f0600480360360208110156200064957600080fd5b81019080803590602001906401000000008111156200066757600080fd5b8201836020820111156200067a57600080fd5b803590602001918460018302840111640100000000831117156200069d57600080fd5b91908080601f016020809104026020016040519081016040528093929190818152602001838380828437600081840152601f19601f820116905080830192505050505050509192919290505050620017c0565b604051808273ffffffffffffffffffffffffffffffffffffffff1673ffffffffffffffffffffffffffffffffffffffff16815260200191505060405180910390f35b620007f1600480360360208110156200074a57600080fd5b81019080803590602001906401000000008111156200076857600080fd5b8201836020820111156200077b57600080fd5b803590602001918460018302840111640100000000831117156200079e57600080fd5b91908080601f016020809104026020016040519081016040528093929190818152602001838380828437600081840152601f19601f82011690508083019250505050505050919291929050505062001854565b604051808273ffffffffffffffffffffffffffffffffffffffff1673ffffffffffffffffffffffffffffffffffffffff16815260200191505060405180910390f35b620008f2600480360360208110156200084b57600080fd5b81019080803590602001906401000000008111156200086957600080fd5b8201836020820111156200087c57600080fd5b803590602001918460018302840111640100000000831117156200089f57600080fd5b91908080601f016020809104026020016040519081016040528093929190818152602001838380828437600081840152601f19601f8201169050808301925050505050505091929192905050506200189d565b6040518080602001828103825283818151815260200191508051906020019080838360005b838110156200093457808201518184015260208101905062000917565b50505050905090810190601f168015620009625780820380516001836020036101000a031916815260200191505b509250505060405180910390f35b62000a4f600480360360408110156200098857600080fd5b81019080803573ffffffffffffffffffffffffffffffffffffffff16906020019092919080359060200190640100000000811115620009c657600080fd5b820183602082011115620009d957600080fd5b80359060200191846001830284011164010000000083111715620009fc57600080fd5b91908080601f016020809104026020016040519081016040528093929190818152602001838380828437600081840152601f19601f82011690508083019250505050505050919291929050505062001bb6565b6040518082815260200191505060405180910390f35b62000b246004803603602081101562000a7d57600080fd5b810190808035906020019064010000000081111562000a9b57600080fd5b82018360208201111562000aae57600080fd5b8035906020019184600183028401116401000000008311171562000ad157600080fd5b91908080601f016020809104026020016040519081016040528093929190818152602001838380828437600081840152601f19601f82011690508083019250505050505050919291929050505062001d16565b604051808215151515815260200191505060405180910390f35b62000b836004803603602081101562000b5657600080fd5b81019080803573ffffffffffffffffffffffffffffffffffffffff16906020019092919050505062001e19565b604051808273ffffffffffffffffffffffffffffffffffffffff1673ffffffffffffffffffffffffffffffffffffffff16815260200191505060405180910390f35b62000d1e6004803603604081101562000bdd57600080fd5b810190808035906020019064010000000081111562000bfb57600080fd5b82018360208201111562000c0e57600080fd5b8035906020019184600183028401116401000000008311171562000c3157600080fd5b91908080601f016020809104026020016040519081016040528093929190818152602001838380828437600081840152601f19601f8201169050808301925050505050505091929192908035906020019064010000000081111562000c9557600080fd5b82018360208201111562000ca857600080fd5b8035906020019184600183028401116401000000008311171562000ccb57600080fd5b91908080601f016020809104026020016040519081016040528093929190818152602001838380828437600081840152601f19601f82011690508083019250505050505050919291929050505062001e4c565b604051808215151515815260200191505060405180910390f35b62000e0b6004803603606081101562000d5057600080fd5b810190808035906020019064010000000081111562000d6e57600080fd5b82018360208201111562000d8157600080fd5b8035906020019184600183028401116401000000008311171562000da457600080fd5b91908080601f016020809104026020016040519081016040528093929190818152602001838380828437600081840152601f19601f820116905080830192505050505050509192919290803590602001909291908035906020019092919050505062001f3f565b005b62000ee06004803603606081101562000e2557600080fd5b810190808035906020019064010000000081111562000e4357600080fd5b82018360208201111562000e5657600080fd5b8035906020019184600183028401116401000000008311171562000e7957600080fd5b91908080601f016020809104026020016040519081016040528093929190818152602001838380828437600081840152601f19601f82011690508083019250505050505050919291929080359060200190929190803590602001909291905050506200219f565b005b62000f116004803603602081101562000efa57600080fd5b8101908080359060200190929190505050620024ed565b6040518080602001828103825283818151815260200191508051906020019080838360005b8381101562000f5357808201518184015260208101905062000f36565b50505050905090810190601f16801562000f815780820380516001836020036101000a031916815260200191505b509250505060405180910390f35b6002818154811062000f9d57fe5b906000526020600020016000915090508054600181600116156101000203166002900480601f016020809104026020016040519081016040528092919081815260200182805460018160011615610100020316600290048015620010455780601f10620010195761010080835404028352916020019162001045565b820191906000526020600020905b8154815290600101906020018083116200102757829003601f168201915b505050505081565b6000600160008473ffffffffffffffffffffffffffffffffffffffff1673ffffffffffffffffffffffffffffffffffffffff16815260200190815260200160002060009054906101000a900473ffffffffffffffffffffffffffffffffffffffff1673ffffffffffffffffffffffffffffffffffffffff1663b99e8f54836040518263ffffffff1660e01b81526004018080602001828103825283818151815260200191508051906020019080838360005b838110156200111c578082015181840152602081019050620010ff565b50505050905090810190601f1680156200114a5780820380516001836020036101000a031916815260200191505b509250505060206040518083038186803b1580156200116857600080fd5b505afa1580156200117d573d6000803e3d6000fd5b505050506040513d60208110156200119457600080fd5b8101908080519060200190929190505050905092915050565b60006060620011bc84620025ab565b9050620011c98162001d16565b156200123d576040517f08c379a00000000000000000000000000000000000000000000000000000000081526004018080602001828103825260168152602001807f436f6d70616e7920646f6573206e6f742065786973740000000000000000000081525060200191505060405180910390fd5b600080826040518082805190602001908083835b6020831062001276578051825260208201915060208101905060208303925062001251565b6001836020036101000a038019825116818451168082178552505050505050905001915050908152602001604051809103902060009054906101000a900473ffffffffffffffffffffffffffffffffffffffff1673ffffffffffffffffffffffffffffffffffffffff1663bf93a8be33866040518363ffffffff1660e01b8152600401808373ffffffffffffffffffffffffffffffffffffffff1673ffffffffffffffffffffffffffffffffffffffff1681526020018273ffffffffffffffffffffffffffffffffffffffff1673ffffffffffffffffffffffffffffffffffffffff16815260200192505050602060405180830381600087803b1580156200137d57600080fd5b505af115801562001392573d6000803e3d6000fd5b505050506040513d6020811015620013a957600080fd5b81019080805190602001909291905050509050809250505092915050565b600073ffffffffffffffffffffffffffffffffffffffff16600160003373ffffffffffffffffffffffffffffffffffffffff1673ffffffffffffffffffffffffffffffffffffffff16815260200190815260200160002060009054906101000a900473ffffffffffffffffffffffffffffffffffffffff1673ffffffffffffffffffffffffffffffffffffffff161415620014ae576040517f08c379a0000000000000000000000000000000000000000000000000000000008152600401808060200182810382526029815260200180620050946029913960400191505060405180910390fd5b600160003373ffffffffffffffffffffffffffffffffffffffff1673ffffffffffffffffffffffffffffffffffffffff16815260200190815260200160002060009054906101000a900473ffffffffffffffffffffffffffffffffffffffff1673ffffffffffffffffffffffffffffffffffffffff166325dc14f28484846040518463ffffffff1660e01b81526004018080602001848152602001838152602001828103825285818151815260200191508051906020019080838360005b83811015620015895780820151818401526020810190506200156c565b50505050905090810190601f168015620015b75780820380516001836020036101000a031916815260200191505b50945050505050600060405180830381600087803b158015620015d957600080fd5b505af1158015620015ee573d6000803e3d6000fd5b50505050505050565b6000600160008473ffffffffffffffffffffffffffffffffffffffff1673ffffffffffffffffffffffffffffffffffffffff16815260200190815260200160002060009054906101000a900473ffffffffffffffffffffffffffffffffffffffff1673ffffffffffffffffffffffffffffffffffffffff16634de1e604836040518263ffffffff1660e01b81526004018080602001828103825283818151815260200191508051906020019080838360005b83811015620016c6578082015181840152602081019050620016a9565b50505050905090810190601f168015620016f45780820380516001836020036101000a031916815260200191505b509250505060206040518083038186803b1580156200171257600080fd5b505afa15801562001727573d6000803e3d6000fd5b505050506040513d60208110156200173e57600080fd5b8101908080519060200190929190505050905092915050565b6000600160008373ffffffffffffffffffffffffffffffffffffffff1673ffffffffffffffffffffffffffffffffffffffff16815260200190815260200160002060009054906101000a900473ffffffffffffffffffffffffffffffffffffffff169050919050565b600080826040518082805190602001908083835b60208310620017f95780518252602082019150602081019050602083039250620017d4565b6001836020036101000a038019825116818451168082178552505050505050905001915050908152602001604051809103902060009054906101000a900473ffffffffffffffffffffffffffffffffffffffff169050919050565b6000818051602081018201805184825260208301602085012081835280955050505050506000915054906101000a900473ffffffffffffffffffffffffffffffffffffffff1681565b606080620018ab83620025ab565b9050600073ffffffffffffffffffffffffffffffffffffffff16600160003373ffffffffffffffffffffffffffffffffffffffff1673ffffffffffffffffffffffffffffffffffffffff16815260200190815260200160002060009054906101000a900473ffffffffffffffffffffffffffffffffffffffff1673ffffffffffffffffffffffffffffffffffffffff16141562001994576040517f08c379a0000000000000000000000000000000000000000000000000000000008152600401808060200182810382526029815260200180620050946029913960400191505060405180910390fd5b600160003373ffffffffffffffffffffffffffffffffffffffff1673ffffffffffffffffffffffffffffffffffffffff16815260200190815260200160002060009054906101000a900473ffffffffffffffffffffffffffffffffffffffff1673ffffffffffffffffffffffffffffffffffffffff1663fa3118d5826040518263ffffffff1660e01b81526004018080602001828103825283818151815260200191508051906020019080838360005b8381101562001a6157808201518184015260208101905062001a44565b50505050905090810190601f16801562001a8f5780820380516001836020036101000a031916815260200191505b509250505060006040518083038186803b15801562001aad57600080fd5b505afa15801562001ac2573d6000803e3d6000fd5b505050506040513d6000823e3d601f19601f82011682018060405250602081101562001aed57600080fd5b810190808051604051939291908464010000000082111562001b0e57600080fd5b8382019150602082018581111562001b2557600080fd5b825186600182028301116401000000008211171562001b4357600080fd5b8083526020830192505050908051906020019080838360005b8381101562001b7957808201518184015260208101905062001b5c565b50505050905090810190601f16801562001ba75780820380516001836020036101000a031916815260200191505b50604052505050915050919050565b6000600160008473ffffffffffffffffffffffffffffffffffffffff1673ffffffffffffffffffffffffffffffffffffffff16815260200190815260200160002060009054906101000a900473ffffffffffffffffffffffffffffffffffffffff1673ffffffffffffffffffffffffffffffffffffffff1663f6c4b965836040518263ffffffff1660e01b81526004018080602001828103825283818151815260200191508051906020019080838360005b8381101562001c8557808201518184015260208101905062001c68565b50505050905090810190601f16801562001cb35780820380516001836020036101000a031916815260200191505b509250505060206040518083038186803b15801562001cd157600080fd5b505afa15801562001ce6573d6000803e3d6000fd5b505050506040513d602081101562001cfd57600080fd5b8101908080519060200190929190505050905092915050565b6000806001905060008090505b60028054905081101562001e0f5762001df1846002838154811062001d4457fe5b906000526020600020018054600181600116156101000203166002900480601f01602080910402602001604051908101604052809291908181526020018280546001816001161561010002031660029004801562001de65780601f1062001dba5761010080835404028352916020019162001de6565b820191906000526020600020905b81548152906001019060200180831162001dc857829003601f168201915b505050505062001e4c565b1562001e01576000915062001e0f565b808060010191505062001d23565b5080915050919050565b60016020528060005260406000206000915054906101000a900473ffffffffffffffffffffffffffffffffffffffff1681565b6000816040516020018082805190602001908083835b6020831062001e87578051825260208201915060208101905060208303925062001e62565b6001836020036101000a03801982511681845116808217855250505050505090500191505060405160208183030381529060405280519060200120836040516020018082805190602001908083835b6020831062001efb578051825260208201915060208101905060208303925062001ed6565b6001836020036101000a0380198251168184511680821785525050505050509050019150506040516020818303038152906040528051906020012014905092915050565b606062001f4c84620025ab565b905062001f598162001d16565b62001fcc576040517f08c379a00000000000000000000000000000000000000000000000000000000081526004018080602001828103825260168152602001807f436f6d70616e7920616c7265616479206578697374730000000000000000000081525060200191505060405180910390fd5b60028190806001815401808255809150509060018203906000526020600020016000909192909190915090805190602001906200200b9291906200271f565b5050338184846040516200201f90620027a6565b808573ffffffffffffffffffffffffffffffffffffffff1673ffffffffffffffffffffffffffffffffffffffff16815260200180602001848152602001838152602001828103825285818151815260200191508051906020019080838360005b838110156200209c5780820151818401526020810190506200207f565b50505050905090810190601f168015620020ca5780820380516001836020036101000a031916815260200191505b5095505050505050604051809103906000f080158015620020ef573d6000803e3d6000fd5b506000826040518082805190602001908083835b6020831062002128578051825260208201915060208101905060208303925062002103565b6001836020036101000a038019825116818451168082178552505050505050905001915050908152602001604051809103902060006101000a81548173ffffffffffffffffffffffffffffffffffffffff021916908373ffffffffffffffffffffffffffffffffffffffff16021790555050505050565b6060620021ac84620025ab565b9050620021b98162001d16565b156200222d576040517f08c379a00000000000000000000000000000000000000000000000000000000081526004018080602001828103825260168152602001807f436f6d70616e7920646f6573206e6f742065786973740000000000000000000081525060200191505060405180910390fd5b600073ffffffffffffffffffffffffffffffffffffffff16600160003373ffffffffffffffffffffffffffffffffffffffff1673ffffffffffffffffffffffffffffffffffffffff16815260200190815260200160002060009054906101000a900473ffffffffffffffffffffffffffffffffffffffff1673ffffffffffffffffffffffffffffffffffffffff161415620023a35733604051620022d190620027b4565b808273ffffffffffffffffffffffffffffffffffffffff1673ffffffffffffffffffffffffffffffffffffffff168152602001915050604051809103906000f08015801562002324573d6000803e3d6000fd5b50600160003373ffffffffffffffffffffffffffffffffffffffff1673ffffffffffffffffffffffffffffffffffffffff16815260200190815260200160002060006101000a81548173ffffffffffffffffffffffffffffffffffffffff021916908373ffffffffffffffffffffffffffffffffffffffff1602179055505b600160003373ffffffffffffffffffffffffffffffffffffffff1673ffffffffffffffffffffffffffffffffffffffff16815260200190815260200160002060009054906101000a900473ffffffffffffffffffffffffffffffffffffffff1673ffffffffffffffffffffffffffffffffffffffff1663cc2368ee8285856040518463ffffffff1660e01b81526004018080602001848152602001838152602001828103825285818151815260200191508051906020019080838360005b838110156200247e57808201518184015260208101905062002461565b50505050905090810190601f168015620024ac5780820380516001836020036101000a031916815260200191505b50945050505050600060405180830381600087803b158015620024ce57600080fd5b505af1158015620024e3573d6000803e3d6000fd5b5050505050505050565b606060028281548110620024fd57fe5b906000526020600020018054600181600116156101000203166002900480601f0160208091040260200160405190810160405280929190818152602001828054600181600116156101000203166002900480156200259f5780601f1062002573576101008083540402835291602001916200259f565b820191906000526020600020905b8154815290600101906020018083116200258157829003601f168201915b50505050509050919050565b606080829050606081516040519080825280601f01601f191660200182016040528015620025e85781602001600182028038833980820191505090505b50905060008090505b8251811015620027145760418382815181106200260a57fe5b602001015160f81c60f81b60f81c60ff1610158015620026485750605a8382815181106200263457fe5b602001015160f81c60f81b60f81c60ff1611155b15620026a8578281815181106200265b57fe5b602001015160f81c60f81b8282815181106200267357fe5b60200101907effffffffffffffffffffffffffffffffffffffffffffffffffffffffffffff1916908160001a90535062002706565b6020838281518110620026b757fe5b602001015160f81c60f81b60f81c0360f81b828281518110620026d657fe5b60200101907effffffffffffffffffffffffffffffffffffffffffffffffffffffffffffff1916908160001a9053505b8080600101915050620025f1565b508092505050919050565b828054600181600116156101000203166002900490600052602060002090601f016020900481019282601f106200276257805160ff191683800117855562002793565b8280016001018555821562002793579182015b828111156200279257825182559160200191906001019062002775565b5b509050620027a29190620027c2565b5090565b61077280620027eb83390190565b6121378062002f5d83390190565b620027e791905b80821115620027e3576000816000905550600101620027c9565b5090565b9056fe608060405234801561001057600080fd5b506040516107723803806107728339818101604052608081101561003357600080fd5b81019080805190602001909291908051604051939291908464010000000082111561005d57600080fd5b8382019150602082018581111561007357600080fd5b825186600182028301116401000000008211171561009057600080fd5b8083526020830192505050908051906020019080838360005b838110156100c45780820151818401526020810190506100a9565b50505050905090810190601f1680156100f15780820380516001836020036101000a031916815260200191505b506040526020018051906020019092919080519060200190929190505050818110610167576040517f08c379a000000000000000000000000000000000000000000000000000000000815260040180806020018281038252602781526020018061074b6027913960400191505060405180910390fd5b83600160006101000a81548173ffffffffffffffffffffffffffffffffffffffff021916908373ffffffffffffffffffffffffffffffffffffffff16021790555082600090805190602001906101be9291906101d6565b5081600281905550806003819055505050505061027b565b828054600181600116156101000203166002900490600052602060002090601f016020900481019282601f1061021757805160ff1916838001178555610245565b82800160010185558215610245579182015b82811115610244578251825591602001919060010190610229565b5b5090506102529190610256565b5090565b61027891905b8082111561027457600081600090555060010161025c565b5090565b90565b6104c18061028a6000396000f3fe608060405234801561001057600080fd5b506004361061004c5760003560e01c80632f54bf6e146100515780638da5cb5b146100ad57806395d89b41146100f7578063bf93a8be1461017a575b600080fd5b6100936004803603602081101561006757600080fd5b81019080803573ffffffffffffffffffffffffffffffffffffffff16906020019092919050505061021e565b604051808215151515815260200191505060405180910390f35b6100b5610278565b604051808273ffffffffffffffffffffffffffffffffffffffff1673ffffffffffffffffffffffffffffffffffffffff16815260200191505060405180910390f35b6100ff61029e565b6040518080602001828103825283818151815260200191508051906020019080838360005b8381101561013f578082015181840152602081019050610124565b50505050905090810190601f16801561016c5780820380516001836020036101000a031916815260200191505b509250505060405180910390f35b6101dc6004803603604081101561019057600080fd5b81019080803573ffffffffffffffffffffffffffffffffffffffff169060200190929190803573ffffffffffffffffffffffffffffffffffffffff16906020019092919050505061033c565b604051808273ffffffffffffffffffffffffffffffffffffffff1673ffffffffffffffffffffffffffffffffffffffff16815260200191505060405180910390f35b6000600160009054906101000a900473ffffffffffffffffffffffffffffffffffffffff1673ffffffffffffffffffffffffffffffffffffffff168273ffffffffffffffffffffffffffffffffffffffff16149050919050565b600160009054906101000a900473ffffffffffffffffffffffffffffffffffffffff1681565b60008054600181600116156101000203166002900480601f0160208091040260200160405190810160405280929190818152602001828054600181600116156101000203166002900480156103345780601f1061030957610100808354040283529160200191610334565b820191906000526020600020905b81548152906001019060200180831161031757829003601f168201915b505050505081565b6000600160009054906101000a900473ffffffffffffffffffffffffffffffffffffffff1673ffffffffffffffffffffffffffffffffffffffff168373ffffffffffffffffffffffffffffffffffffffff16146103e4576040517f08c379a000000000000000000000000000000000000000000000000000000000815260040180806020018281038252603c815260200180610451603c913960400191505060405180910390fd5b81600160006101000a81548173ffffffffffffffffffffffffffffffffffffffff021916908373ffffffffffffffffffffffffffffffffffffffff160217905550600160009054906101000a900473ffffffffffffffffffffffffffffffffffffffff1690509291505056fe4f776e657273686970206368616e67652072657175657374206d6164652066726f6d206e6f6e2d617574686f7261746174697665206163636f756e74a265627a7a7231582079fd440cd5d8cb28ae0c80e2ad1230ad153840ea8784726524bddaa8d07329f664736f6c63430005100032546f74616c20736861726573206973206e6f742067726561746572207468616e20666c6f61742e608060405234801561001057600080fd5b506040516121373803806121378339818101604052602081101561003357600080fd5b8101908080519060200190929190505050806000806101000a81548173ffffffffffffffffffffffffffffffffffffffff021916908373ffffffffffffffffffffffffffffffffffffffff160217905550506120a3806100946000396000f3fe608060405234801561001057600080fd5b50600436106100a95760003560e01c8063bed34bba11610071578063bed34bba146104a0578063c2d189f71461060a578063cc2368ee146106e3578063ef7b7ca9146107b2578063f6c4b9651461088b578063fa3118d51461095a576100a9565b806325dc14f2146100ae5780634de1e6041461017d5780638da5cb5b1461024c578063aedae65b14610296578063b99e8f54146103d1575b600080fd5b61017b600480360360608110156100c457600080fd5b81019080803590602001906401000000008111156100e157600080fd5b8201836020820111156100f357600080fd5b8035906020019184600183028401116401000000008311171561011557600080fd5b91908080601f016020809104026020016040519081016040528093929190818152602001838380828437600081840152601f19601f8201169050808301925050505050505091929192908035906020019092919080359060200190929190505050610a8e565b005b6102366004803603602081101561019357600080fd5b81019080803590602001906401000000008111156101b057600080fd5b8201836020820111156101c257600080fd5b803590602001918460018302840111640100000000831117156101e457600080fd5b91908080601f016020809104026020016040519081016040528093929190818152602001838380828437600081840152601f19601f820116905080830192505050505050509192919290505050610ca3565b6040518082815260200191505060405180910390f35b610254610d19565b604051808273ffffffffffffffffffffffffffffffffffffffff1673ffffffffffffffffffffffffffffffffffffffff16815260200191505060405180910390f35b61034f600480360360208110156102ac57600080fd5b81019080803590602001906401000000008111156102c957600080fd5b8201836020820111156102db57600080fd5b803590602001918460018302840111640100000000831117156102fd57600080fd5b91908080601f016020809104026020016040519081016040528093929190818152602001838380828437600081840152601f19601f820116905080830192505050505050509192919290505050610d3e565b6040518080602001838152602001828103825284818151815260200191508051906020019080838360005b8381101561039557808201518184015260208101905061037a565b50505050905090810190601f1680156103c25780820380516001836020036101000a031916815260200191505b50935050505060405180910390f35b61048a600480360360208110156103e757600080fd5b810190808035906020019064010000000081111561040457600080fd5b82018360208201111561041657600080fd5b8035906020019184600183028401116401000000008311171561043857600080fd5b91908080601f016020809104026020016040519081016040528093929190818152602001838380828437600081840152601f19601f820116905080830192505050505050509192919290505050610e10565b6040518082815260200191505060405180910390f35b6105f0600480360360408110156104b657600080fd5b81019080803590602001906401000000008111156104d357600080fd5b8201836020820111156104e557600080fd5b8035906020019184600183028401116401000000008311171561050757600080fd5b91908080601f016020809104026020016040519081016040528093929190818152602001838380828437600081840152601f19601f8201169050808301925050505050505091929192908035906020019064010000000081111561056a57600080fd5b82018360208201111561057c57600080fd5b8035906020019184600183028401116401000000008311171561059e57600080fd5b91908080601f016020809104026020016040519081016040528093929190818152602001838380828437600081840152601f19601f820116905080830192505050505050509192919290505050610ea3565b604051808215151515815260200191505060405180910390f35b6106cd6004803603604081101561062057600080fd5b810190808035906020019064010000000081111561063d57600080fd5b82018360208201111561064f57600080fd5b8035906020019184600183028401116401000000008311171561067157600080fd5b91908080601f016020809104026020016040519081016040528093929190818152602001838380828437600081840152601f19601f82011690508083019250505050505050919291929080359060200190929190505050610f92565b6040518082815260200191505060405180910390f35b6107b0600480360360608110156106f957600080fd5b810190808035906020019064010000000081111561071657600080fd5b82018360208201111561072857600080fd5b8035906020019184600183028401116401000000008311171561074a57600080fd5b91908080601f016020809104026020016040519081016040528093929190818152602001838380828437600081840152601f19601f820116905080830192505050505050509192919290803590602001909291908035906020019092919050505061142f565b005b610875600480360360408110156107c857600080fd5b81019080803590602001906401000000008111156107e557600080fd5b8201836020820111156107f757600080fd5b8035906020019184600183028401116401000000008311171561081957600080fd5b91908080601f016020809104026020016040519081016040528093929190818152602001838380828437600081840152601f19601f8201169050808301925050505050505091929192908035906020019092919050505061171b565b6040518082815260200191505060405180910390f35b610944600480360360208110156108a157600080fd5b81019080803590602001906401000000008111156108be57600080fd5b8201836020820111156108d057600080fd5b803590602001918460018302840111640100000000831117156108f257600080fd5b91908080601f016020809104026020016040519081016040528093929190818152602001838380828437600081840152601f19601f820116905080830192505050505050509192919290505050611b3e565b6040518082815260200191505060405180910390f35b610a136004803603602081101561097057600080fd5b810190808035906020019064010000000081111561098d57600080fd5b82018360208201111561099f57600080fd5b803590602001918460018302840111640100000000831117156109c157600080fd5b91908080601f016020809104026020016040519081016040528093929190818152602001838380828437600081840152601f19601f820116905080830192505050505050509192919290505050611bd1565b6040518080602001828103825283818151815260200191508051906020019080838360005b83811015610a53578082015181840152602081019050610a38565b50505050905090810190601f168015610a805780820380516001836020036101000a031916815260200191505b509250505060405180910390f35b6060610a9984611e27565b9050826001826040518082805190602001908083835b60208310610ad25780518252602082019150602081019050602083039250610aaf565b6001836020036101000a0380198251168184511680821785525050505050509050019150509081526020016040518091039020600101541015610b60576040517f08c379a000000000000000000000000000000000000000000000000000000000815260040180806020018281038252603a815260200180612035603a913960400191505060405180910390fd5b826001826040518082805190602001908083835b60208310610b975780518252602082019150602081019050602083039250610b74565b6001836020036101000a0380198251168184511680821785525050505050509050019150509081526020016040518091039020600101600082825403925050819055506001816040518082805190602001908083835b60208310610c105780518252602082019150602081019050602083039250610bed565b6001836020036101000a038019825116818451168082178552505050505050905001915050908152602001604051809103902060030160405180604001604052808581526020018481525090806001815401808255809150509060018203906000526020600020906002020160009091929091909150600082015181600001556020820151816001015550505050505050565b60006001826040518082805190602001908083835b60208310610cdb5780518252602082019150602081019050602083039250610cb8565b6001836020036101000a0380198251168184511680821785525050505050509050019150509081526020016040518091039020600101549050919050565b6000809054906101000a900473ffffffffffffffffffffffffffffffffffffffff1681565b600181805160208101820180518482526020830160208501208183528095505050505050600091509050806000018054600181600116156101000203166002900480601f016020809104026020016040519081016040528092919081815260200182805460018160011615610100020316600290048015610e005780601f10610dd557610100808354040283529160200191610e00565b820191906000526020600020905b815481529060010190602001808311610de357829003601f168201915b5050505050908060010154905082565b60006001826040518082805190602001908083835b60208310610e485780518252602082019150602081019050602083039250610e25565b6001836020036101000a0380198251168184511680821785525050505050509050019150509081526020016040518091039020600201600081548110610e8a57fe5b9060005260206000209060020201600101549050919050565b6000816040516020018082805190602001908083835b60208310610edc5780518252602082019150602081019050602083039250610eb9565b6001836020036101000a03801982511681845116808217855250505050505090500191505060405160208183030381529060405280519060200120836040516020018082805190602001908083835b60208310610f4e5780518252602082019150602081019050602083039250610f2b565b6001836020036101000a0380198251168184511680821785525050505050509050019150506040516020818303038152906040528051906020012014905092915050565b60006060610f9f84611e27565b9050600080905060008090505b6001836040518082805190602001908083835b60208310610fe25780518252602082019150602081019050602083039250610fbf565b6001836020036101000a0380198251168184511680821785525050505050509050019150509081526020016040518091039020600201805490508110156113a95760006001846040518082805190602001908083835b6020831061105b5780518252602082019150602081019050602083039250611038565b6001836020036101000a0380198251168184511680821785525050505050509050019150509081526020016040518091039020600201828154811061109c57fe5b906000526020600020906002020160000154111561138f57846001846040518082805190602001908083835b602083106110eb57805182526020820191506020810190506020830392506110c8565b6001836020036101000a0380198251168184511680821785525050505050509050019150509081526020016040518091039020600201828154811061112c57fe5b906000526020600020906002020160000154106111e557846001846040518082805190602001908083835b6020831061117a5780518252602082019150602081019050602083039250611157565b6001836020036101000a038019825116818451168082178552505050505050905001915050908152602001604051809103902060020182815481106111bb57fe5b9060005260206000209060020201600001600082825403925050819055508491506000945061138e565b6001836040518082805190602001908083835b6020831061121b57805182526020820191506020810190506020830392506111f8565b6001836020036101000a0380198251168184511680821785525050505050509050019150509081526020016040518091039020600201818154811061125c57fe5b906000526020600020906002020160000154820191506001836040518082805190602001908083835b602083106112a85780518252602082019150602081019050602083039250611285565b6001836020036101000a038019825116818451168082178552505050505050905001915050908152602001604051809103902060020181815481106112e957fe5b9060005260206000209060020201600001548503945060006001846040518082805190602001908083835b602083106113375780518252602082019150602081019050602083039250611314565b6001836020036101000a0380198251168184511680821785525050505050509050019150509081526020016040518091039020600201828154811061137857fe5b9060005260206000209060020201600001819055505b5b6000851161139c576113a9565b8080600101915050610fac565b50806001836040518082805190602001908083835b602083106113e157805182526020820191506020810190506020830392506113be565b6001836020036101000a038019825116818451168082178552505050505050905001915050908152602001604051809103902060010160008282540192505081905550809250505092915050565b606061143a84611e27565b90506115596001826040518082805190602001908083835b602083106114755780518252602082019150602081019050602083039250611452565b6001836020036101000a03801982511681845116808217855250505050505090500191505090815260200160405180910390206000018054600181600116156101000203166002900480601f01602080910402602001604051908101604052809291908181526020018280546001816001161561010002031660029004801561153f5780601f106115145761010080835404028352916020019161153f565b820191906000526020600020905b81548152906001019060200180831161152257829003601f168201915b505050505060405180602001604052806000815250610ea3565b1561165257806001826040518082805190602001908083835b602083106115955780518252602082019150602081019050602083039250611572565b6001836020036101000a038019825116818451168082178552505050505050905001915050908152602001604051809103902060000190805190602001906115de929190611f8f565b5060006001826040518082805190602001908083835b6020831061161757805182526020820191506020810190506020830392506115f4565b6001836020036101000a0380198251168184511680821785525050505050509050019150509081526020016040518091039020600101819055505b6001816040518082805190602001908083835b602083106116885780518252602082019150602081019050602083039250611665565b6001836020036101000a038019825116818451168082178552505050505050905001915050908152602001604051809103902060020160405180604001604052808581526020018481525090806001815401808255809150509060018203906000526020600020906002020160009091929091909150600082015181600001556020820151816001015550505050505050565b6000606061172884611e27565b9050600080905060008090505b6001836040518082805190602001908083835b6020831061176b5780518252602082019150602081019050602083039250611748565b6001836020036101000a038019825116818451168082178552505050505050905001915050908152602001604051809103902060030180549050811015611b325760006001846040518082805190602001908083835b602083106117e457805182526020820191506020810190506020830392506117c1565b6001836020036101000a0380198251168184511680821785525050505050509050019150509081526020016040518091039020600301828154811061182557fe5b9060005260206000209060020201600001541115611b1857846001846040518082805190602001908083835b602083106118745780518252602082019150602081019050602083039250611851565b6001836020036101000a038019825116818451168082178552505050505050905001915050908152602001604051809103902060030182815481106118b557fe5b9060005260206000209060020201600001541061196e57846001846040518082805190602001908083835b6020831061190357805182526020820191506020810190506020830392506118e0565b6001836020036101000a0380198251168184511680821785525050505050509050019150509081526020016040518091039020600301828154811061194457fe5b90600052602060002090600202016000016000828254039250508190555084915060009450611b17565b6001836040518082805190602001908083835b602083106119a45780518252602082019150602081019050602083039250611981565b6001836020036101000a038019825116818451168082178552505050505050905001915050908152602001604051809103902060030181815481106119e557fe5b906000526020600020906002020160000154820191506001836040518082805190602001908083835b60208310611a315780518252602082019150602081019050602083039250611a0e565b6001836020036101000a03801982511681845116808217855250505050505090500191505090815260200160405180910390206003018181548110611a7257fe5b9060005260206000209060020201600001548503945060006001846040518082805190602001908083835b60208310611ac05780518252602082019150602081019050602083039250611a9d565b6001836020036101000a03801982511681845116808217855250505050505090500191505090815260200160405180910390206003018281548110611b0157fe5b9060005260206000209060020201600001819055505b5b60008511611b2557611b32565b8080600101915050611735565b50809250505092915050565b60006001826040518082805190602001908083835b60208310611b765780518252602082019150602081019050602083039250611b53565b6001836020036101000a0380198251168184511680821785525050505050509050019150509081526020016040518091039020600201600081548110611bb857fe5b9060005260206000209060020201600001549050919050565b606080611bdd83611e27565b9050611cfc6001826040518082805190602001908083835b60208310611c185780518252602082019150602081019050602083039250611bf5565b6001836020036101000a03801982511681845116808217855250505050505090500191505090815260200160405180910390206000018054600181600116156101000203166002900480601f016020809104026020016040519081016040528092919081815260200182805460018160011615610100020316600290048015611ce25780601f10611cb757610100808354040283529160200191611ce2565b820191906000526020600020905b815481529060010190602001808311611cc557829003601f168201915b505050505060405180602001604052806000815250610ea3565b15611d195760405180602001604052806000815250915050611e22565b6001816040518082805190602001908083835b60208310611d4f5780518252602082019150602081019050602083039250611d2c565b6001836020036101000a03801982511681845116808217855250505050505090500191505090815260200160405180910390206000018054600181600116156101000203166002900480601f016020809104026020016040519081016040528092919081815260200182805460018160011615610100020316600290048015611e195780601f10611dee57610100808354040283529160200191611e19565b820191906000526020600020905b815481529060010190602001808311611dfc57829003601f168201915b50505050509150505b919050565b606080829050606081516040519080825280601f01601f191660200182016040528015611e635781602001600182028038833980820191505090505b50905060008090505b8251811015611f84576041838281518110611e8357fe5b602001015160f81c60f81b60f81c60ff1610158015611ebf5750605a838281518110611eab57fe5b602001015160f81c60f81b60f81c60ff1611155b15611f1b57828181518110611ed057fe5b602001015160f81c60f81b828281518110611ee757fe5b60200101907effffffffffffffffffffffffffffffffffffffffffffffffffffffffffffff1916908160001a905350611f77565b6020838281518110611f2957fe5b602001015160f81c60f81b60f81c0360f81b828281518110611f4757fe5b60200101907effffffffffffffffffffffffffffffffffffffffffffffffffffffffffffff1916908160001a9053505b8080600101915050611e6c565b508092505050919050565b828054600181600116156101000203166002900490600052602060002090601f016020900481019282601f10611fd057805160ff1916838001178555611ffe565b82800160010185558215611ffe579182015b82811115611ffd578251825591602001919060010190611fe2565b5b50905061200b919061200f565b5090565b61203191905b8082111561202d576000816000905550600101612015565b5090565b9056fe4164647265737320646f6573206e6f74206f776e20656e6f756768206f6620746865207265717565737465642073746f636b20746f2073656c6ca265627a7a72315820f4a95a1a52ea4d19831c21074f6c3a367e5f3fb5dbc842c253915411e1d5acea64736f6c6343000510003241646472657373206973206e6f74206173736f636961746564207769746820616e206163636f756e74a265627a7a7231582010aac4617cf1d45a06c4ef3fb2da612f63d1d13deb1c96265f0a21e7af1b13c564736f6c63430005100032",
  "source": "pragma solidity >=0.5.0 <0.9.0;\r\n\r\nimport \"./Company.sol\";\r\nimport \"./User.sol\";\r\n\r\ncontract Transfer\r\n{\r\n    mapping(string => Company) public companies;\r\n    mapping(address => User) public users;\r\n    string[] public companySymbols;\r\n\r\n    function getCompanies(string memory symbol) public view returns (Company) {\r\n        return companies[symbol];\r\n    }\r\n\r\n    function getUsers(address user) public view returns (User) {\r\n        return users[user];\r\n    }\r\n\r\n    function getUsersStockBalance(address user, string memory symbol) public view returns (uint) {\r\n        return users[user].getStockValue(symbol);\r\n    }\r\n    \r\n    function getUsersBuyOrderQuantity(address user, string memory symbol) public view returns (uint) {\r\n        return users[user].getBuyOrderQuantity(symbol);\r\n    }\r\n\r\n    function getUsersBuyOrderPrice(address user, string memory symbol) public view returns (uint) {\r\n        return users[user].getBuyOrderPrice(symbol);\r\n    }\r\n\r\n    function getCompanySymbol(uint index) public view returns (string memory) {\r\n        return companySymbols[index];\r\n    }\r\n    \r\n    function compareStrings(string memory a, string memory b) public pure returns (bool) \r\n    {\r\n        return (keccak256(abi.encodePacked((a))) == keccak256(abi.encodePacked((b))));\r\n    }\r\n    \r\n    modifier costs(uint price) \r\n    {\r\n      if (msg.value >= price) {_;}\r\n    }\r\n    \r\n    modifier companyIsNew(string memory _symbol)\r\n    {\r\n        Company comp = Company(companies[_symbol]);\r\n        \r\n        require(!compareStrings(comp.symbol(),_symbol),\"ISSUE WITH NEW COMPANY\");\r\n        \r\n        if (!compareStrings(comp.symbol(),_symbol)) {_;}\r\n        //if (!compareStrings(companies[_symbol].symbol, _symbol)) {_;}\r\n    }\r\n    \r\n    modifier userNotNew()\r\n    {\r\n        if (users[msg.sender].owner() == msg.sender) {_;}\r\n    }\r\n    \r\n    function companyNew(string memory _symbol) public view returns (bool)\r\n    {\r\n        bool isNew = true;\r\n        \r\n        for (uint i = 0; i < companySymbols.length; i++)\r\n        {\r\n            if (compareStrings(_symbol, companySymbols[i]))\r\n            {\r\n                isNew = false;\r\n                break;\r\n            }\r\n        }\r\n        \r\n        return isNew;\r\n    }\r\n    \r\n    function toUpper(string memory str) internal pure returns (string memory) {\r\n        bytes memory bStr = bytes(str);\r\n        bytes memory bUpper = new bytes(bStr.length);\r\n        for (uint i = 0; i < bStr.length; i++) {\r\n            // Uppercase character...\r\n            if ((uint8(bStr[i]) >= 65) && (uint8(bStr[i]) <= 90))\r\n                bUpper[i] = bStr[i];\r\n            // Lowercase - make upper by -32\r\n            else \r\n                bUpper[i] = bytes1(uint8(bStr[i]) - 32);\r\n        }\r\n        return string(bUpper);\r\n    }\r\n    \r\n    function changeOwnership(string memory _symbol, address _newOwner) public returns(address)\r\n    {\r\n        string memory sym = toUpper(_symbol);\r\n        require(!companyNew(sym),\"Company does not exist\");\r\n        address newOwner = companies[sym].changeOwnership(msg.sender,_newOwner);\r\n        return newOwner;\r\n    }\r\n    \r\n    // new Company \r\n     function newIPO(string memory _symbol, uint _issued, uint _float) public\r\n     {\r\n        string memory upperStr = toUpper(_symbol);\r\n        require(companyNew(upperStr),\"Company already exists\");\r\n        companySymbols.push(upperStr);\r\n        companies[upperStr] = new Company(msg.sender,upperStr,_issued,_float);\r\n     }\r\n     \r\n     // UPDATE - check if buy amount requested is actually valid from company\r\n    // user buy request with price limit\r\n    function buyRequest(string memory _symbol, uint _quantity, uint _priceLimit) public\r\n    {\r\n        string memory sym = toUpper(_symbol);\r\n\t\trequire(!companyNew(sym),\"Company does not exist\");\r\n        \r\n        if(address(users[msg.sender]) == address(0))\r\n\t\t\tusers[msg.sender] = new User(msg.sender);\r\n\r\n\t\tusers[msg.sender].addBuyRequest(sym,_quantity,_priceLimit);\r\n    }\r\n    \r\n    function getPortfolio(string memory _symbol) public view returns(string memory)\r\n\t{\r\n\t\tstring memory sym = toUpper(_symbol);\r\n\t\trequire(address(users[msg.sender]) != address(0),\"Address is not associated with an account\");\r\n\t\r\n\t\treturn users[msg.sender].getPortfolioInfo(sym);\r\n\t}\r\n    \r\n    // user sell request with price limit\r\n    function sellRequest(string memory _symbol, uint _quantity, uint _priceLimit) public\r\n    {\r\n        require(address(users[msg.sender]) != address(0),\"Address is not associated with an account\");\r\n        users[msg.sender].addSellRequest(_symbol,_quantity,_priceLimit);\r\n    }\r\n}",
  "sourcePath": "C:\\Users\\cryst\\Documents\\autumn-2021-2022\\projects\\group5\\ClearChain\\contracts\\Transfer.sol",
  "compiler": {
    "name": "solc",
    "version": "0.5.16+commit.9c3226ce.Emscripten.clang"
  },
  "schemaVersion": "3.4.3",
  "updatedAt": "2021-11-08T19:32:41.663Z",
  "networkType": "ethereum",
  "devdoc": {
    "methods": {}
  },
  "userdoc": {
    "methods": {}
  }
}