{
  "contractName": "User",
  "abi": [
    {
      "inputs": [
        {
          "internalType": "address",
          "name": "_owner",
          "type": "address"
        }
      ],
      "payable": false,
      "stateMutability": "nonpayable",
      "type": "constructor"
    },
    {
      "constant": true,
      "inputs": [],
      "name": "owner",
      "outputs": [
        {
          "internalType": "address",
          "name": "",
          "type": "address"
        }
      ],
      "payable": false,
      "stateMutability": "view",
      "type": "function"
    },
    {
      "constant": true,
      "inputs": [
        {
          "internalType": "string",
          "name": "",
          "type": "string"
        }
      ],
      "name": "stockList",
      "outputs": [
        {
          "internalType": "string",
          "name": "symbol",
          "type": "string"
        },
        {
          "internalType": "uint256",
          "name": "owned",
          "type": "uint256"
        }
      ],
      "payable": false,
      "stateMutability": "view",
      "type": "function"
    },
    {
      "constant": true,
      "inputs": [
        {
          "internalType": "string",
          "name": "symb",
          "type": "string"
        }
      ],
      "name": "getBuyOrderQuantity",
      "outputs": [
        {
          "internalType": "uint256",
          "name": "",
          "type": "uint256"
        }
      ],
      "payable": false,
      "stateMutability": "view",
      "type": "function"
    },
    {
      "constant": true,
      "inputs": [
        {
          "internalType": "string",
          "name": "symb",
          "type": "string"
        }
      ],
      "name": "getBuyOrderPrice",
      "outputs": [
        {
          "internalType": "uint256",
          "name": "",
          "type": "uint256"
        }
      ],
      "payable": false,
      "stateMutability": "view",
      "type": "function"
    },
    {
      "constant": true,
      "inputs": [
        {
          "internalType": "string",
          "name": "symb",
          "type": "string"
        }
      ],
      "name": "getStockValue",
      "outputs": [
        {
          "internalType": "uint256",
          "name": "",
          "type": "uint256"
        }
      ],
      "payable": false,
      "stateMutability": "view",
      "type": "function"
    },
    {
      "constant": true,
      "inputs": [
        {
          "internalType": "string",
          "name": "a",
          "type": "string"
        },
        {
          "internalType": "string",
          "name": "b",
          "type": "string"
        }
      ],
      "name": "compareStrings",
      "outputs": [
        {
          "internalType": "bool",
          "name": "",
          "type": "bool"
        }
      ],
      "payable": false,
      "stateMutability": "pure",
      "type": "function"
    },
    {
      "constant": true,
      "inputs": [
        {
          "internalType": "string",
          "name": "_symbol",
          "type": "string"
        }
      ],
      "name": "getPortfolioInfo",
      "outputs": [
        {
          "internalType": "string",
          "name": "",
          "type": "string"
        }
      ],
      "payable": false,
      "stateMutability": "view",
      "type": "function"
    },
    {
      "constant": false,
      "inputs": [
        {
          "internalType": "string",
          "name": "_symbol",
          "type": "string"
        },
        {
          "internalType": "uint256",
          "name": "_quantity",
          "type": "uint256"
        },
        {
          "internalType": "uint256",
          "name": "_priceLimit",
          "type": "uint256"
        }
      ],
      "name": "addBuyRequest",
      "outputs": [],
      "payable": false,
      "stateMutability": "nonpayable",
      "type": "function"
    },
    {
      "constant": false,
      "inputs": [
        {
          "internalType": "string",
          "name": "_symbol",
          "type": "string"
        },
        {
          "internalType": "uint256",
          "name": "_quantity",
          "type": "uint256"
        },
        {
          "internalType": "uint256",
          "name": "_priceLimit",
          "type": "uint256"
        }
      ],
      "name": "addSellRequest",
      "outputs": [],
      "payable": false,
      "stateMutability": "nonpayable",
      "type": "function"
    },
    {
      "constant": false,
      "inputs": [
        {
          "internalType": "string",
          "name": "_symbol",
          "type": "string"
        },
        {
          "internalType": "uint256",
          "name": "_quantity",
          "type": "uint256"
        }
      ],
      "name": "resolveBuyRequest",
      "outputs": [
        {
          "internalType": "uint256",
          "name": "",
          "type": "uint256"
        }
      ],
      "payable": false,
      "stateMutability": "nonpayable",
      "type": "function"
    },
    {
      "constant": false,
      "inputs": [
        {
          "internalType": "string",
          "name": "_symbol",
          "type": "string"
        },
        {
          "internalType": "uint256",
          "name": "_quantity",
          "type": "uint256"
        }
      ],
      "name": "resolveSellRequest",
      "outputs": [
        {
          "internalType": "uint256",
          "name": "",
          "type": "uint256"
        }
      ],
      "payable": false,
      "stateMutability": "nonpayable",
      "type": "function"
    }
  ],
  "bytecode": "0x608060405234801561001057600080fd5b506040516121373803806121378339818101604052602081101561003357600080fd5b8101908080519060200190929190505050806000806101000a81548173ffffffffffffffffffffffffffffffffffffffff021916908373ffffffffffffffffffffffffffffffffffffffff160217905550506120a3806100946000396000f3fe608060405234801561001057600080fd5b50600436106100a95760003560e01c8063bed34bba11610071578063bed34bba146104a0578063c2d189f71461060a578063cc2368ee146106e3578063ef7b7ca9146107b2578063f6c4b9651461088b578063fa3118d51461095a576100a9565b806325dc14f2146100ae5780634de1e6041461017d5780638da5cb5b1461024c578063aedae65b14610296578063b99e8f54146103d1575b600080fd5b61017b600480360360608110156100c457600080fd5b81019080803590602001906401000000008111156100e157600080fd5b8201836020820111156100f357600080fd5b8035906020019184600183028401116401000000008311171561011557600080fd5b91908080601f016020809104026020016040519081016040528093929190818152602001838380828437600081840152601f19601f8201169050808301925050505050505091929192908035906020019092919080359060200190929190505050610a8e565b005b6102366004803603602081101561019357600080fd5b81019080803590602001906401000000008111156101b057600080fd5b8201836020820111156101c257600080fd5b803590602001918460018302840111640100000000831117156101e457600080fd5b91908080601f016020809104026020016040519081016040528093929190818152602001838380828437600081840152601f19601f820116905080830192505050505050509192919290505050610ca3565b6040518082815260200191505060405180910390f35b610254610d19565b604051808273ffffffffffffffffffffffffffffffffffffffff1673ffffffffffffffffffffffffffffffffffffffff16815260200191505060405180910390f35b61034f600480360360208110156102ac57600080fd5b81019080803590602001906401000000008111156102c957600080fd5b8201836020820111156102db57600080fd5b803590602001918460018302840111640100000000831117156102fd57600080fd5b91908080601f016020809104026020016040519081016040528093929190818152602001838380828437600081840152601f19601f820116905080830192505050505050509192919290505050610d3e565b6040518080602001838152602001828103825284818151815260200191508051906020019080838360005b8381101561039557808201518184015260208101905061037a565b50505050905090810190601f1680156103c25780820380516001836020036101000a031916815260200191505b50935050505060405180910390f35b61048a600480360360208110156103e757600080fd5b810190808035906020019064010000000081111561040457600080fd5b82018360208201111561041657600080fd5b8035906020019184600183028401116401000000008311171561043857600080fd5b91908080601f016020809104026020016040519081016040528093929190818152602001838380828437600081840152601f19601f820116905080830192505050505050509192919290505050610e10565b6040518082815260200191505060405180910390f35b6105f0600480360360408110156104b657600080fd5b81019080803590602001906401000000008111156104d357600080fd5b8201836020820111156104e557600080fd5b8035906020019184600183028401116401000000008311171561050757600080fd5b91908080601f016020809104026020016040519081016040528093929190818152602001838380828437600081840152601f19601f8201169050808301925050505050505091929192908035906020019064010000000081111561056a57600080fd5b82018360208201111561057c57600080fd5b8035906020019184600183028401116401000000008311171561059e57600080fd5b91908080601f016020809104026020016040519081016040528093929190818152602001838380828437600081840152601f19601f820116905080830192505050505050509192919290505050610ea3565b604051808215151515815260200191505060405180910390f35b6106cd6004803603604081101561062057600080fd5b810190808035906020019064010000000081111561063d57600080fd5b82018360208201111561064f57600080fd5b8035906020019184600183028401116401000000008311171561067157600080fd5b91908080601f016020809104026020016040519081016040528093929190818152602001838380828437600081840152601f19601f82011690508083019250505050505050919291929080359060200190929190505050610f92565b6040518082815260200191505060405180910390f35b6107b0600480360360608110156106f957600080fd5b810190808035906020019064010000000081111561071657600080fd5b82018360208201111561072857600080fd5b8035906020019184600183028401116401000000008311171561074a57600080fd5b91908080601f016020809104026020016040519081016040528093929190818152602001838380828437600081840152601f19601f820116905080830192505050505050509192919290803590602001909291908035906020019092919050505061142f565b005b610875600480360360408110156107c857600080fd5b81019080803590602001906401000000008111156107e557600080fd5b8201836020820111156107f757600080fd5b8035906020019184600183028401116401000000008311171561081957600080fd5b91908080601f016020809104026020016040519081016040528093929190818152602001838380828437600081840152601f19601f8201169050808301925050505050505091929192908035906020019092919050505061171b565b6040518082815260200191505060405180910390f35b610944600480360360208110156108a157600080fd5b81019080803590602001906401000000008111156108be57600080fd5b8201836020820111156108d057600080fd5b803590602001918460018302840111640100000000831117156108f257600080fd5b91908080601f016020809104026020016040519081016040528093929190818152602001838380828437600081840152601f19601f820116905080830192505050505050509192919290505050611b3e565b6040518082815260200191505060405180910390f35b610a136004803603602081101561097057600080fd5b810190808035906020019064010000000081111561098d57600080fd5b82018360208201111561099f57600080fd5b803590602001918460018302840111640100000000831117156109c157600080fd5b91908080601f016020809104026020016040519081016040528093929190818152602001838380828437600081840152601f19601f820116905080830192505050505050509192919290505050611bd1565b6040518080602001828103825283818151815260200191508051906020019080838360005b83811015610a53578082015181840152602081019050610a38565b50505050905090810190601f168015610a805780820380516001836020036101000a031916815260200191505b509250505060405180910390f35b6060610a9984611e27565b9050826001826040518082805190602001908083835b60208310610ad25780518252602082019150602081019050602083039250610aaf565b6001836020036101000a0380198251168184511680821785525050505050509050019150509081526020016040518091039020600101541015610b60576040517f08c379a000000000000000000000000000000000000000000000000000000000815260040180806020018281038252603a815260200180612035603a913960400191505060405180910390fd5b826001826040518082805190602001908083835b60208310610b975780518252602082019150602081019050602083039250610b74565b6001836020036101000a0380198251168184511680821785525050505050509050019150509081526020016040518091039020600101600082825403925050819055506001816040518082805190602001908083835b60208310610c105780518252602082019150602081019050602083039250610bed565b6001836020036101000a038019825116818451168082178552505050505050905001915050908152602001604051809103902060030160405180604001604052808581526020018481525090806001815401808255809150509060018203906000526020600020906002020160009091929091909150600082015181600001556020820151816001015550505050505050565b60006001826040518082805190602001908083835b60208310610cdb5780518252602082019150602081019050602083039250610cb8565b6001836020036101000a0380198251168184511680821785525050505050509050019150509081526020016040518091039020600101549050919050565b6000809054906101000a900473ffffffffffffffffffffffffffffffffffffffff1681565b600181805160208101820180518482526020830160208501208183528095505050505050600091509050806000018054600181600116156101000203166002900480601f016020809104026020016040519081016040528092919081815260200182805460018160011615610100020316600290048015610e005780601f10610dd557610100808354040283529160200191610e00565b820191906000526020600020905b815481529060010190602001808311610de357829003601f168201915b5050505050908060010154905082565b60006001826040518082805190602001908083835b60208310610e485780518252602082019150602081019050602083039250610e25565b6001836020036101000a0380198251168184511680821785525050505050509050019150509081526020016040518091039020600201600081548110610e8a57fe5b9060005260206000209060020201600101549050919050565b6000816040516020018082805190602001908083835b60208310610edc5780518252602082019150602081019050602083039250610eb9565b6001836020036101000a03801982511681845116808217855250505050505090500191505060405160208183030381529060405280519060200120836040516020018082805190602001908083835b60208310610f4e5780518252602082019150602081019050602083039250610f2b565b6001836020036101000a0380198251168184511680821785525050505050509050019150506040516020818303038152906040528051906020012014905092915050565b60006060610f9f84611e27565b9050600080905060008090505b6001836040518082805190602001908083835b60208310610fe25780518252602082019150602081019050602083039250610fbf565b6001836020036101000a0380198251168184511680821785525050505050509050019150509081526020016040518091039020600201805490508110156113a95760006001846040518082805190602001908083835b6020831061105b5780518252602082019150602081019050602083039250611038565b6001836020036101000a0380198251168184511680821785525050505050509050019150509081526020016040518091039020600201828154811061109c57fe5b906000526020600020906002020160000154111561138f57846001846040518082805190602001908083835b602083106110eb57805182526020820191506020810190506020830392506110c8565b6001836020036101000a0380198251168184511680821785525050505050509050019150509081526020016040518091039020600201828154811061112c57fe5b906000526020600020906002020160000154106111e557846001846040518082805190602001908083835b6020831061117a5780518252602082019150602081019050602083039250611157565b6001836020036101000a038019825116818451168082178552505050505050905001915050908152602001604051809103902060020182815481106111bb57fe5b9060005260206000209060020201600001600082825403925050819055508491506000945061138e565b6001836040518082805190602001908083835b6020831061121b57805182526020820191506020810190506020830392506111f8565b6001836020036101000a0380198251168184511680821785525050505050509050019150509081526020016040518091039020600201818154811061125c57fe5b906000526020600020906002020160000154820191506001836040518082805190602001908083835b602083106112a85780518252602082019150602081019050602083039250611285565b6001836020036101000a038019825116818451168082178552505050505050905001915050908152602001604051809103902060020181815481106112e957fe5b9060005260206000209060020201600001548503945060006001846040518082805190602001908083835b602083106113375780518252602082019150602081019050602083039250611314565b6001836020036101000a0380198251168184511680821785525050505050509050019150509081526020016040518091039020600201828154811061137857fe5b9060005260206000209060020201600001819055505b5b6000851161139c576113a9565b8080600101915050610fac565b50806001836040518082805190602001908083835b602083106113e157805182526020820191506020810190506020830392506113be565b6001836020036101000a038019825116818451168082178552505050505050905001915050908152602001604051809103902060010160008282540192505081905550809250505092915050565b606061143a84611e27565b90506115596001826040518082805190602001908083835b602083106114755780518252602082019150602081019050602083039250611452565b6001836020036101000a03801982511681845116808217855250505050505090500191505090815260200160405180910390206000018054600181600116156101000203166002900480601f01602080910402602001604051908101604052809291908181526020018280546001816001161561010002031660029004801561153f5780601f106115145761010080835404028352916020019161153f565b820191906000526020600020905b81548152906001019060200180831161152257829003601f168201915b505050505060405180602001604052806000815250610ea3565b1561165257806001826040518082805190602001908083835b602083106115955780518252602082019150602081019050602083039250611572565b6001836020036101000a038019825116818451168082178552505050505050905001915050908152602001604051809103902060000190805190602001906115de929190611f8f565b5060006001826040518082805190602001908083835b6020831061161757805182526020820191506020810190506020830392506115f4565b6001836020036101000a0380198251168184511680821785525050505050509050019150509081526020016040518091039020600101819055505b6001816040518082805190602001908083835b602083106116885780518252602082019150602081019050602083039250611665565b6001836020036101000a038019825116818451168082178552505050505050905001915050908152602001604051809103902060020160405180604001604052808581526020018481525090806001815401808255809150509060018203906000526020600020906002020160009091929091909150600082015181600001556020820151816001015550505050505050565b6000606061172884611e27565b9050600080905060008090505b6001836040518082805190602001908083835b6020831061176b5780518252602082019150602081019050602083039250611748565b6001836020036101000a038019825116818451168082178552505050505050905001915050908152602001604051809103902060030180549050811015611b325760006001846040518082805190602001908083835b602083106117e457805182526020820191506020810190506020830392506117c1565b6001836020036101000a0380198251168184511680821785525050505050509050019150509081526020016040518091039020600301828154811061182557fe5b9060005260206000209060020201600001541115611b1857846001846040518082805190602001908083835b602083106118745780518252602082019150602081019050602083039250611851565b6001836020036101000a038019825116818451168082178552505050505050905001915050908152602001604051809103902060030182815481106118b557fe5b9060005260206000209060020201600001541061196e57846001846040518082805190602001908083835b6020831061190357805182526020820191506020810190506020830392506118e0565b6001836020036101000a0380198251168184511680821785525050505050509050019150509081526020016040518091039020600301828154811061194457fe5b90600052602060002090600202016000016000828254039250508190555084915060009450611b17565b6001836040518082805190602001908083835b602083106119a45780518252602082019150602081019050602083039250611981565b6001836020036101000a038019825116818451168082178552505050505050905001915050908152602001604051809103902060030181815481106119e557fe5b906000526020600020906002020160000154820191506001836040518082805190602001908083835b60208310611a315780518252602082019150602081019050602083039250611a0e565b6001836020036101000a03801982511681845116808217855250505050505090500191505090815260200160405180910390206003018181548110611a7257fe5b9060005260206000209060020201600001548503945060006001846040518082805190602001908083835b60208310611ac05780518252602082019150602081019050602083039250611a9d565b6001836020036101000a03801982511681845116808217855250505050505090500191505090815260200160405180910390206003018281548110611b0157fe5b9060005260206000209060020201600001819055505b5b60008511611b2557611b32565b8080600101915050611735565b50809250505092915050565b60006001826040518082805190602001908083835b60208310611b765780518252602082019150602081019050602083039250611b53565b6001836020036101000a0380198251168184511680821785525050505050509050019150509081526020016040518091039020600201600081548110611bb857fe5b9060005260206000209060020201600001549050919050565b606080611bdd83611e27565b9050611cfc6001826040518082805190602001908083835b60208310611c185780518252602082019150602081019050602083039250611bf5565b6001836020036101000a03801982511681845116808217855250505050505090500191505090815260200160405180910390206000018054600181600116156101000203166002900480601f016020809104026020016040519081016040528092919081815260200182805460018160011615610100020316600290048015611ce25780601f10611cb757610100808354040283529160200191611ce2565b820191906000526020600020905b815481529060010190602001808311611cc557829003601f168201915b505050505060405180602001604052806000815250610ea3565b15611d195760405180602001604052806000815250915050611e22565b6001816040518082805190602001908083835b60208310611d4f5780518252602082019150602081019050602083039250611d2c565b6001836020036101000a03801982511681845116808217855250505050505090500191505090815260200160405180910390206000018054600181600116156101000203166002900480601f016020809104026020016040519081016040528092919081815260200182805460018160011615610100020316600290048015611e195780601f10611dee57610100808354040283529160200191611e19565b820191906000526020600020905b815481529060010190602001808311611dfc57829003601f168201915b50505050509150505b919050565b606080829050606081516040519080825280601f01601f191660200182016040528015611e635781602001600182028038833980820191505090505b50905060008090505b8251811015611f84576041838281518110611e8357fe5b602001015160f81c60f81b60f81c60ff1610158015611ebf5750605a838281518110611eab57fe5b602001015160f81c60f81b60f81c60ff1611155b15611f1b57828181518110611ed057fe5b602001015160f81c60f81b828281518110611ee757fe5b60200101907effffffffffffffffffffffffffffffffffffffffffffffffffffffffffffff1916908160001a905350611f77565b6020838281518110611f2957fe5b602001015160f81c60f81b60f81c0360f81b828281518110611f4757fe5b60200101907effffffffffffffffffffffffffffffffffffffffffffffffffffffffffffff1916908160001a9053505b8080600101915050611e6c565b508092505050919050565b828054600181600116156101000203166002900490600052602060002090601f016020900481019282601f10611fd057805160ff1916838001178555611ffe565b82800160010185558215611ffe579182015b82811115611ffd578251825591602001919060010190611fe2565b5b50905061200b919061200f565b5090565b61203191905b8082111561202d576000816000905550600101612015565b5090565b9056fe4164647265737320646f6573206e6f74206f776e20656e6f756768206f6620746865207265717565737465642073746f636b20746f2073656c6ca265627a7a72315820f4a95a1a52ea4d19831c21074f6c3a367e5f3fb5dbc842c253915411e1d5acea64736f6c63430005100032",
  "source": "pragma solidity >=0.5.0 <0.9.0;\r\n\r\ncontract User\r\n{\r\n    struct Transaction\r\n    {\r\n        uint quantity;\r\n        uint price;\r\n    }\r\n    \r\n    struct Stock\r\n    {\r\n        string symbol;\r\n        uint owned;\r\n        Transaction[] buyOrders;\r\n        Transaction[] sellOrders;\r\n    }\r\n    \r\n    address public owner;\r\n    //Stock[] stockList;\r\n    mapping(string => Stock) public stockList;\r\n\r\n    function getBuyOrderQuantity(string memory symb) public view returns (uint) {\r\n        return stockList[symb].buyOrders[0].quantity;\r\n    }\r\n\r\n    function getBuyOrderPrice(string memory symb) public view returns (uint) {\r\n        return stockList[symb].buyOrders[0].price;\r\n    }\r\n\r\n    function getStockValue(string memory symb) public view returns (uint) {\r\n        return stockList[symb].owned;\r\n    }\r\n    \r\n    function compareStrings(string memory a, string memory b) public pure returns (bool) \r\n    {\r\n        return (keccak256(abi.encodePacked((a))) == keccak256(abi.encodePacked((b))));\r\n    }\r\n    \r\n    modifier canSell(string memory _symbol, uint _quantity)\r\n    {\r\n        if (!compareStrings(stockList[_symbol].symbol,\"\") && stockList[_symbol].owned >= _quantity) {_;}\r\n        else require(false,\"Address does not own enough of the requested stock to sell\");\r\n    }\r\n    \r\n    constructor(address _owner) public\r\n    {\r\n        owner = _owner;\r\n    }\r\n    \r\n    function toUpper(string memory str) internal pure returns (string memory) {\r\n        bytes memory bStr = bytes(str);\r\n        bytes memory bUpper = new bytes(bStr.length);\r\n        for (uint i = 0; i < bStr.length; i++) {\r\n            // Uppercase character...\r\n            if ((uint8(bStr[i]) >= 65) && (uint8(bStr[i]) <= 90))\r\n                bUpper[i] = bStr[i];\r\n            // Lowercase - make upper by -32\r\n            else \r\n                bUpper[i] = bytes1(uint8(bStr[i]) - 32);\r\n        }\r\n        return string(bUpper);\r\n    }\r\n    \r\n    /*\r\n    function canSell(string memory _symbol, uint _quantity) public view returns (bool)\r\n    {\r\n        for (int i = 0; i < stockList.length; i++)\r\n        {\r\n            if (stockList[i].symbol == _symbol && stockList[i].owned >= _quantity)\r\n                return true;\r\n        }\r\n        \r\n        return false;\r\n    }\r\n    */\r\n    \r\n    function getPortfolioInfo(string memory _symbol) public view returns(string memory) \r\n    {\r\n        string memory sym = toUpper(_symbol);\r\n        if(compareStrings(stockList[sym].symbol,\"\"))\r\n            return \"\";\r\n        else\r\n            return stockList[sym].symbol;\r\n    }\r\n\r\n    function addBuyRequest(string memory _symbol, uint _quantity, uint _priceLimit) public\r\n    {\r\n        string memory sym = toUpper(_symbol);\r\n        \r\n        if(compareStrings(stockList[sym].symbol,\"\"))\r\n        {\r\n\t\t\tstockList[sym].symbol = sym;\r\n\t\t\tstockList[sym].owned = 0;\r\n        }\r\n\t\t\t\r\n\t\tstockList[sym].buyOrders.push(Transaction(_quantity,_priceLimit));\r\n    }\r\n    \r\n    function addSellRequest(string memory _symbol, uint _quantity, uint _priceLimit) public\r\n    {\r\n        string memory sym = toUpper(_symbol);\r\n        \r\n        require(stockList[sym].owned >= _quantity, \"Address does not own enough of the requested stock to sell\");\r\n        \r\n        stockList[sym].owned -= _quantity;\r\n        stockList[sym].sellOrders.push(Transaction(_quantity,_priceLimit));\r\n    }\r\n    \r\n    function resolveBuyRequest(string memory _symbol, uint _quantity) public returns(uint)\r\n\t{\r\n\t\tstring memory sym = toUpper(_symbol);\r\n\t\tuint purchased = 0;\r\n\t\t\r\n\t\tfor (uint i = 0; i < stockList[sym].buyOrders.length; i++)\r\n\t\t{\r\n\t\t\tif (stockList[sym].buyOrders[i].quantity > 0)\r\n\t\t\t{\r\n\t\t\t\tif (stockList[sym].buyOrders[i].quantity >= _quantity)\r\n\t\t\t\t{\r\n\t\t\t\t\tstockList[sym].buyOrders[i].quantity -= _quantity;\r\n\t\t\t\t\tpurchased = _quantity;\r\n\t\t\t\t\t_quantity = 0;\r\n\t\t\t\t}\r\n\t\t\t\telse\r\n\t\t\t\t{\r\n\t\t\t\t    purchased += stockList[sym].buyOrders[i].quantity;\r\n\t\t\t\t\t_quantity -= stockList[sym].buyOrders[i].quantity;\r\n\t\t\t\t\tstockList[sym].buyOrders[i].quantity = 0;\r\n\t\t\t\t}\r\n\t\t\t}\r\n\t\t\t\r\n\t\t\tif (_quantity <= 0)\r\n\t\t\t\tbreak;\r\n\t\t}\r\n\t\t\r\n\t\tstockList[sym].owned += purchased;\r\n\t\treturn purchased;\r\n\t}\r\n\t\r\n\tfunction resolveSellRequest(string memory _symbol, uint _quantity) public returns(uint)\r\n\t{\r\n\t\tstring memory sym = toUpper(_symbol);\r\n\t\tuint sold = 0;\r\n\t\t\r\n\t\tfor (uint i = 0; i < stockList[sym].sellOrders.length; i++)\r\n\t\t{\r\n\t\t\tif (stockList[sym].sellOrders[i].quantity > 0)\r\n\t\t\t{\r\n\t\t\t\tif (stockList[sym].sellOrders[i].quantity >= _quantity)\r\n\t\t\t\t{\r\n\t\t\t\t\tstockList[sym].sellOrders[i].quantity -= _quantity;\r\n\t\t\t\t\tsold = _quantity;\r\n\t\t\t\t\t_quantity = 0;\r\n\t\t\t\t}\r\n\t\t\t\telse\r\n\t\t\t\t{\r\n\t\t\t\t    sold += stockList[sym].sellOrders[i].quantity;\r\n\t\t\t\t\t_quantity -= stockList[sym].sellOrders[i].quantity;\r\n\t\t\t\t\tstockList[sym].sellOrders[i].quantity = 0;\r\n\t\t\t\t}\r\n\t\t\t}\r\n\t\t\t\r\n\t\t\tif (_quantity <= 0)\r\n\t\t\t\tbreak;\r\n\t\t}\r\n\t\t\r\n\t\treturn sold;\r\n\t}\r\n}",
  "sourcePath": "C:\\Users\\cryst\\Documents\\autumn-2021-2022\\projects\\group5\\ClearChain\\contracts\\User.sol",
  "compiler": {
    "name": "solc",
    "version": "0.5.16+commit.9c3226ce.Emscripten.clang"
  },
  "schemaVersion": "3.4.3",
  "updatedAt": "2021-11-08T19:32:37.134Z",
  "devdoc": {
    "methods": {}
  },
  "userdoc": {
    "methods": {}
  }
}